:0600000002006B0201B5D5
:03000B000202C22C
:03001300020208DE
:01001B0032B2
:0300230002011DBA
:03002B00020A586E
:01003300329A
:03003B0002025B63
:030043000200DEDA
:01004B003282
:030053000201693E
:01005B003272
:03006300020A5638
:030066000202AFE4
:02006900E4733E
:0D006B00758126120E92E582600302006688
:10007800791BE94400601B7A0190101F78DD75A098
:1000880000E493F2A308B8000205A0D9F4DAF275E7
:02009800A0FFC7
:06009A00E478FFF6D8FD3A
:1000A0007800E84400600A799475A000E4F309D868
:1000B000FC7849E84400600C7901900094E4F0A3D6
:0400C000D8FCD9FA95
:0E00C4007808E4F608F608F608F6780C7600E0
:0200D200C20268
:0200D400C20464
:0200D600C20561
:0300D800020066BD
:0200DC002222DE
:1000DE00C021C0E0C0F0C082C083C007C006C0050A
:1000EE00C004C003C002C001C000C0D075D0001251
:1000FE00092ED0D0D000D001D002D003D004D0052C
:10010E00D006D007D083D082D0F0D0E0D02132C03C
:10011E0021C0E0C0F0C082C083C007C006C005C0C9
:10012E0004C003C002C001C000C0D075D00030981A
:10013E0005120D76C298309905120DB6C299D0D01F
:10014E00D000D001D002D003D004D005D006D00705
:10015E00D083D082D0F0D0E0D02132C021C0E0C018
:10016E00F0C082C083C007C006C005C004C003C073
:10017E0002C001C000C0D075D00030C005120E0400
:10018E00C2C030C105120E44C2C1D0D0D000D001C1
:10019E00D002D003D004D005D006D007D083D082B1
:1001AE00D0F0D0E0D02132C021C0E0C0F0C082C07B
:1001BE0083C007C006C005C004C003C002C001C092
:1001CE0000C0D075D0009000ECE0FEA3E0FFC007A9
:1001DE00C0068E828F83120069D006D007D0D0D091
:1001EE0000D001D002D003D004D005D006D007D065
:1001FE0083D082D0F0D0E0D02132C021C0E0C0F058
:10020E00C082C083C007C006C005C004C003C002C0
:10021E00C001C000C0D075D0009000EEE0FEA3E09B
:10022E00FFC007C0068E828F83120069D006D007EA
:10023E00D0D0D000D001D002D003D004D005D0064B
:10024E00D007D083D082D0F0D0E0D02132C021C0F0
:10025E00E0C0F0C082C083C007C006C005C004C0A5
:10026E0003C002C001C000C0D075D0009000DFE016
:10027E00FEA3E04E600E9000DFE0F8A3E0F5838869
:10028E0082120069D0D0D000D001D002D003D004A9
:10029E00D005D006D007D083D082D0F0D0E0D021C8
:1002AE003212046B1200DC1200DD120B5280F87554
:0302BE0082002299
:1002C200C0D075D00808B8000D09B900090ABA00F3
:1002D200050BBB00010CD0D032A2AFC2AFA808A957
:1002E20009AA0AAB0BAC8A8588F092AF30F512747A
:1002F200012C600D08B8000909B900050ABA00010D
:100302000BC3EC9406FCECC313FC75F07DE8A4F877
:10031200ADF075F07DE9A42DF9E435F0FD75F07DC1
:10032200EAA42DFAE435F0FD75F07DEBA42DFB7DFA
:1003320000EC28F582E93DF583EA3DF5F0EB3D223C
:10034200A2AFC2AFA808A909AA0AAB0BAC0C92AF24
:1003520075F020E8A4A8F075F020E9A428F582A899
:10036200F075F020EAA428F583A8F075F020EBA43C
:1003720028F9A8F075F020ECA42889F022858210D3
:1003820085831185F012F5131202DB8582148583B1
:100392001585F016F517E510451145124513700144
:1003A20022A810A911AA12AB138514188515198554
:1003B200161A85171BE8494A4B60DBC003C002C00E
:1003C20001C0001202DBAC82AD83AEF0FFD000D0E0
:1003D20001D002D003ECC39518FCED9519FDEE9502
:1003E2001AFEEF951BFFC3EC94E8ED9403EE940024
:1003F200EF940040A118B8FF0919B9FF051ABAFF16
:10040200011B881089118A128B1374E82518F518BC
:1004120074033519F519E4351AF51AE4351BF51B81
:10042200851814851915851A16851B178087AE82C3
:10043200AF83C374019EE49F40022200C374029EF4
:10044200FE74009FFF00BE0005BF000200220000F4
:100452000000000000000000000000000000000E8C
:10046200BE00EB0FBF00ED002275A15575A1AA7465
:10047200F855B94406F5B975A100901388120430F5
:10048200120A03120A2D120A1C75DD0075D30075BB
:10049200D500759E5D759D0074F055894402F589FD
:0F04A20053C9EF758C06C28DD2A9D28CD2AF226E
:1004B200AFDBBF08028003020872900007E0FE7FF4
:1004C20000900006E0FD7C004FF522EC4EF5237F04
:1004D20000900001E0F524900000E0FE54606053BB
:1004E200900000E0FE5306607D00BE2005BD0002C4
:1004F200800BBE4039BD00367FFF0208747420B500
:1005020024030208747421B5240280077422B524DE
:1005120018800C120AA7AD82AE838D07020874C040
:1005220007120AD6D0070208747FFF0208747FFF01
:10053200020874E52424F4500302086EE524240B17
:1005420083F582E524241083F583E473507E6E3EA6
:100552006E48666E55727474080608070806050828
:1005620006060808900003E0FEBE0102800ABE02F1
:1005720002800FBE0360801475258375260F7F12DB
:10058200805675259575260F7F46804C900002E0B7
:10059200FE24FB4036EE2E90059D738008800E806F
:1005A20014801A80207525DB75260F801E75250F95
:1005B20075261080167525EB75260F800E7525DFC2
:1005C20075260F80067525FD75260F8525828526E1
:1005D20083E493FF80027FFFBFFF030208748F054D
:1005E2007E00C3ED9522EE952350048D228E23AD1D
:1005F20022AE23C3ED9408EE9400920040067B08DD
:100602007C008004AB22AC238B077C00C3EC9F50A0
:10061200198C027B00EC2525F582E43526F583E46E
:1006220093F98A828B83F00C80E28F037C00EDC306
:100632009BFDEE9CFE8D228E23EF2525F525E435CC
:1006420026F526020874900002E0FE8E2275230031
:10065200020874900094E0900000F0AD22AE23C333
:10066200ED9401EE940050030208747F01020874B5
:10067200900002E0FE900094F0020874900000E006
:10068200541F702F900003E0FD7E00900002E0FCFA
:100692007B004206EB4205BE0114BD0011900F9C87
:1006A200E493FE30E5030208747FFF0208747FFFC3
:1006B200020874900000E0FE53061F7D00BE027720
:1006C200BD0074900004E0FEBE0102805FBE020223
:1006D2008049BE03028033BE0402801DBE810280B7
:1006E20040BE8202802ABE83028014BE844474BC4F
:1006F20055DE4402F5DE02087453DE730208747498
:10070200BC55D64402F5D602087453D67302087457
:1007120074BC55D44402F5D402087453D47302084D
:100722007474BC55D24402F5D202087453D27302D7
:1007320008747FFF0208747FFF020874900000E0D3
:10074200541F702F900003E0FD7E00900002E0FC39
:100752007B004206EB4205BE0114BD0011900F9CC6
:10076200E493FE30E5030208747FFF0208747FFF02
:10077200020874900000E0FE53061F7D00BE0205D1
:10078200BD0002800302084C900003E0FD7E009051
:100792000002E0FC7B004206EB4205EE4D600302E4
:1007A2000848900005E0FD7E00900004E0FC7B001C
:1007B2004206EB4205BE0106BD000302083CBE0232
:1007C20005BD00028060BE0305BD00028044BE0478
:1007D20005BD00028028BE8105BD00028052BE8296
:1007E20005BD00028036BE8305BD0002801ABE84AC
:1007F20051BD004E74BF55DE4403F5DE8074747F34
:1008020055DE440CF5DE806A74BF55D64403F5D636
:100812008060747F55D6440CF5D6805674BF55D48B
:100822004403F5D4804C747F55D4440CF5D48042F3
:1008320074BF55D24403F5D28038747F55D2440C2C
:10084200F5D27FFF802C7FFF80287FFF80249000DD
:1008520000E4F0900001F0AD22AE23C3ED9402EE6D
:10086200940040047F02800AAF2280067FFF80024C
:100872007FFFBFFF077524FF75DCCF22EF24F7400F
:10088200068FDD75DCC02275DD0075DCC0227405C3
:10089200B52402805D7406B52466AE22AF23C3EE92
:1008A2009408EF9400920140067C087D008004AC1D
:1008B20022AD237D00C3ED9C50198D027B00ED25F6
:1008C20025F582E43526F583E493F98A828B83F059
:1008D2000D80E28C037D00EEC39BFEEF9DFF8E2216
:1008E2008F23EC2525F525E43526F5268CDD63DC02
:1008F2004022E5E35480FFE5224FF5E375DC022256
:1009020075DD0075DC02227420B5240D30DE101274
:100912000A6275DD0085DCDC2275DD0043DC022223
:1009220075D30074FC55D24402F5D22220D90302B9
:1009320009D9E5D9540FFFADD95305307E00BD006A
:1009420005BE0002801CBD1005BE00028036BD201F
:1009520005BE00028043BD3006BE00030209BF028D
:1009620009D7EF24FB50030209D7EF2F90097273C6
:10097200800880618009805D805B120909805612BF
:100982000CC48051EF24FB404CEF2F9009917380EF
:100992004480428040803E803CEF24FB4037EF2F72
:1009A2009009A6738008800B800E80298027120888
:1009B200908022120922801D120CB68018EF24FBAF
:1009C2004013EF2F9009CA738008800980078005C1
:1009D20080031204B2C2D930D81A75DC0275D21261
:1009E20075D41275E300C2DAC2D9C2D8900094E479
:1009F200F0120A5A10DA0122E5DA20E20375D8FF72
:100A02002275E20053E27F43E22975E30053E2BF1D
:100A120053D1FB75D18043D1012243E10443E1026A
:100A220043E10143D81FD2EAD2AF227E007F008E7B
:100A3200EC8FED7E0A7F008EEE8FEF7E147F008EAC
:100A4200E48FE575EB0C75D21275D41275EA407518
:030A5200DC0222A1
:010A5600326D
:010A5800326B
:100A5A009000E8E4F0C202227F00C3E5DB9407922B
:100A6A000340067D077E008004ADDB7E008F037C99
:100A7A0000C3EB9DEC64808EF063F08095F0501C0F
:100A8A00EF24E1FDE43400FEEF2400F582E43400B3
:100A9A00F583E0FC8D828E83F00F80BE227F008F6B
:100AAA00057E00C3ED9407EE9400501CEF2400FD70
:100ABA00E43400FEEF24E1F582E43400F583E0FC3F
:100ACA008D828E83F00F80D790000722900002E07B
:100ADA00FF9000EAF0E020E0339000E1E0FCA3E0C0
:100AEA00FDA3E0FEA3E0FFBCB022BD041FBE001CB4
:100AFA00BF001975E200C2AF75890090C350120495
:100B0A003090C35012043012380080FE227E007FDB
:100B1A00003002200EBE00010F900005C007C0067B
:100B2A00120430D006D007C3EE9450EF94C340E1CC
:100B3A007582002275820122751D009000EAE0602C
:100B4A0003751D01851D82222002259000EBE0FF1E
:100B5A00601E8FD553D4FCD202BF400F120B17E58B
:100B6A0082600875D50053D4FCD2029000EBE4F001
:100B7A0022AF829000EAE06041C007120B17E582BB
:100B8A00D0077003F582229000EBE0FEBE400050D1
:100B9A00207D0074402EFEE43DFDEE2414F582ED26
:100BAA003400F583EFF09000EBE02401F075820148
:100BBA0022C007120B52D00780BF75820022AFF005
:100BCA00AE83E582900097F0EEA3F0EFA3F09000D9
:100BDA00EAE07003020C7E900095E0FEA3E0FFC3FA
:100BEA00E49E74808FF063F08095F04003020C7EDF
:100BFA00C007C006120B17E582D006D0077003F5AE
:100C0A008222900097E0FBA3E0FCA3E0FDC3E49EF0
:100C1A0074808FF063F08095F050BC9000EBE0FA9E
:100C2A00BA400050498A017A00744029F9E43AFA34
:100C3A00E92414F9EA3400FA8B828C838DF0120DC0
:100C4A005AF8A3AB82AC83900097EBF0ECA3F0EDDB
:100C5A00A3F089828A83E8F09000EBE02401F01E79
:100C6A00BEFF011F900095EEF0EFA3F0809F120BDC
:100C7A0052020BE1758200229000E8E0F582229090
:100C8A0000E8E07003F582229000E9E02414F5827E
:100C9A00E43400F583E0FF9000E9E004F09000E816
:100CAA00E014F0E0700353D4F38F822275D50074F8
:100CBA00FC55D44402F5D4C2022230DE199000E871
:100CCA00E5DBF09000E9E4F09000E8E0600874F3F6
:070CDA0055D44408F5D422B3
:100CE20022AF82BF0200503EEF75F002A424ECFD59
:100CF200740035F0FE90009AE0FBA3E0FC8D828E3A
:100D020083EBF0ECA3F0BF00028005BF0118800B5B
:100D120090009CE024FF9288D2A82290009CE0FFE1
:100D220024FF928AD2AA22AF82BF02005028BF00BB
:100D3200028005BF01088004C2A88002C2AAEF7522
:100D4200F002A424ECFE740035F0FF8E828F8374CF
:070D5200E2F0740CA3F02293
:100D5A0020F71430F6148883A88220F507E6A883C2
:0C0D6A0075830022E280F7E49322E0226F
:100D76009000F0E0FF7E000FBF00010E7410C0E08F
:100D8600E4C0E08F828E83120E96AE8215811581A5
:100D96009000F1E0FFEEB50701229000F0E0249DFF
:100DA600F582E43400F583E599F09000F0EEF02248
:100DB60030044A9000F2E0FF9000F3E0FEEFB50643
:100DC60005A204C204229000F3E024ADF582E434C7
:100DD60000F583E0F5999000F3E0FF7E000FBF0079
:100DE600010E7410C0E0E4C0E08F828E83120E966E
:0E0DF600AE82AF83158115819000F3EEF022DE
:100E04009000F4E0FF7E000FBF00010E7410C0E0FC
:100E1400E4C0E08F828E83120E96AE821581158116
:100E24009000F5E0FFEEB50701229000F4E024BD48
:100E3400F582E43400F583E5C1F09000F4EEF0228D
:100E440030054A9000F6E0FF9000F7E0FEEFB506AB
:100E540005A205C205229000F7E024CDF582E43412
:100E640000F583E0F5C19000F7E0FF7E000FBF00BE
:100E7400010E7410C0E0E4C0E08F828E83120E96DF
:0E0E8400AE82AF83158115819000F7EEF0224B
:100E920075820022C01C85811CAE82E583FF33E48B
:100EA20033FD6009C3E49EFBE49FFC80048E038F44
:100EB20004E51C24FCF808E630E70FE51C24FCF8E6
:100EC200C3E496FE08E496FF800AE51C24FCF8863B
:100ED20006088607C005C006C0078B828C83120FE6
:100EE20004AE82AF8315811581D005ED600DC3E498
:100EF2009EFCE49FFD8C828D8380048E828F83D042
:100F02001C22C01C85811CAE82AF837D007C00E563
:100F12001C24FCF808E6235401FB702FE51C24FC7A
:100F2200F8E626F608E633F6E51C24FCF8C3EE964E
:100F3200EF08965011E51C24FCF808E618C313C606
:100F420013C608F680050C8C0580C4E51C24FCF849
:100F5200C3EE96EF0896400DE51C24FCF8EEC3960E
:100F6200FEEF0896FFE51C24FCF808E618C313C63A
:100F720013C608F68D041DEC70D18E828F83D01CAF
:010F8200224C
:100F830012011001EF020108091250C5010101020B
:100F93000301090246000201008064080B000202FB
:100FA30002010409040000010202010405240010E7
:100FB3000104240202052406000107058103080039
:100FC3004009040100020A00000407050202400070
:100FD3000007058202400000040309040C034300D8
:100FE30048003500350078001203440065007600A0
:100FF30062006F0078005600310012034400650060
:10100300760062006F007800560031001003530031
:0C10130068006900720062007500740043
:02101F00AF021E
:021021000000CD
:0B10230000E1000000000800000000D9
:04102E00E20CE20CE2
:0410320000000000BA
:0410360000000000B6
:00000001FF
